:1000000040340020D523000011660000C123000009
:10001000C1230000C1230000C1230000C123000050
:100020000000000000000000000000009924000013
:10003000C12300000000000039240000C12300009B
:1000400011260000112600001126000011260000D4
:1000500011260000112600001126000011260000C4
:1000600011260000112600001126000011260000B4
:1000700011260000112600001126000011260000A4
:100080001126000011260000112600001126000094
:100090001126000011260000112600001126000084
:1000A0001126000011260000112600001126000074
:1000B0001126000011260000112600001126000064
:1000C0001126000011260000112600001126000054
:1000D0001126000011260000112600001126000044
:1000E0001126000011260000112600001126000034
:1000F0001126000011260000112600001126000024
:100100001126000011260000112600001126000013
:100110001126000011260000112600001126000003
:1001200011260000112600001126000011260000F3
:1001300011260000112600001126000011260000E3
:040140001126000084
:10014400034613F8012B002AFBD1181A0138704713
:1001540037B5054614460020BAB1072B13D90C4B0A
:10016400ADF806008DF805106846062100938DF859
:10017400045005F09EFB6B4640BAADF8060003CB75
:1001840020600820616003B030BD1046FBE700BF6B
:100194000801000213B50446A0B1072912D940F2A0
:1001A4000113094A06216846CDE9002305F081FBC5
:1001B4006B4640BAADF8060003CB206008206160AE
:1001C40002B010BD0020FBE70802000230B504466F
:1001D40085B018B30C2921D9114A124B0B21CDE952
:1001E40000230023684602938DF80C3005F061FB70
:1001F4006A46234640BAADF80B0002AD144603CC60
:10020400AC4218605960224603F10803F6D1206815
:1002140018600D2022791A7105B030BD0020FBE76B
:10022400080200070280800000B5037991B0112B09
:1002340022D009D8032B0BD0042B0DD040226946C1
:10024400062005F060FB0FE0132BF7D1144800E003
:10025400144805F087F803E04179134805F070F875
:100264004021684605F062FB014610B1684600F083
:1002740043FA11B05DF804FB0C4805F073F8402113
:10028400684605F053FB014610B1684600F034FAA5
:1002940040236A4611210320FFF75AFFE4E700BF19
:1002A40026770000007700000977000042770000FD
:1002B4002DE9F84F044600AF674D03212846674AED
:1002C40006F0D3F863886E465BBA8AB06A46207833
:1002D40061789BB24FF00508DFF884C1C2E90713C7
:1002E400C2E905C04FF4235942F8108F0023494650
:1002F400284601F0E9FAB5468AB06A462079617960
:10030400A379DFF860C1C2E90713C2E905C042F866
:10031400108F00234946284601F0D6FAB546B4F8B2
:100324000910B4F80B308EB049BA5BBA6A4694F837
:100334000DC0A07B89B29BB2DFF82CE140F20138FA
:10034400C2F814E04FF0020EC2E9093C474BC2F870
:1003540018E004F1070EC2E907E1D062A2F8308088
:1003640042F8103F0023284644F2C04101F0ACFAA1
:10037400B5468CB06A4694F80FE094F810C0607CDF
:10038400A17CE37C4FF0070ADFF8E490C2E907C0E0
:10039400C2E9059EC2E909134FF4635942F810AF4C
:1003A40000234946284601F08FFA02B06A464FF00E
:1003B400100B304BC2F818B0536104F11403D3612D
:1003C4002D4BA2F820804FF4135142F8103F002324
:1003D400284601F079FA6A46284BA2F82080C2E93F
:1003E400053B04F12403D361234B42F8103F00235F
:1003F40028464FF4135101F067FAB5468CB06A46AB
:1004040094F834E094F835C094F8360094F8371032
:1004140094F83830DFF86880C2E907C0C2E9058E75
:10042400C2E9091342F810AF00234946284601F0F7
:100434004BFAB4F83930B5465BBA9BB2032128466F
:10044400104A06F01BF8032128460F4A06F00DF85F
:10045400BD46BDE8F88F00BFEC740000557700007E
:100464006D77000099770000CD7700000800000147
:10047400147800004478000004000001577800005C
:100484006B78000096780000A678000010B504464A
:1004940094B0808805F05BFAB0F5617F20D8B0F5A0
:1004A400607F0CD240F2811398422BD0B0F5007FCC
:1004B40039D0402204A9072005F025FA1EE0A0F552
:1004C40060700428F5D801A353F820F0F904000063
:1004D400B7040000F9040000F9040000F904000066
:1004E40040F28143984205D0B0F5D06F33D0B0F5D7
:1004F400906FDED1402104A805F018FA014680B1BE
:1005040004A825E0164804F02DFF402104A805F0B6
:100514000DFA014610B104A800F0EEF82046FFF7EA
:10052400C7FE14B010BD6388B3F5007FC1D140216C
:1005340004A805F0FBF9014610B104A800F0DCF8AA
:10054400402104A8FFF742FE0028EAD00D216846A6
:1005540000F0D2F8E5E7034804F004FFCAE700BF5F
:10056400BE780000D87800001838C0B206289ABFB8
:10057400014B185C002070474F79000000B50079EA
:1005840091B0FFF7F1FF18280AD0192822D0154896
:1005940004F0E8FE40226946072005F0B4F911E0B2
:1005A400114804F0DFFE4021684605F0BFF901461A
:1005B40010B1684600F0A0F840236A4600211820D4
:1005C40005F0BDF9014610B1684600F095F811B088
:1005D4005DF804FB054804F0C5FE4021684605F0BB
:1005E400A5F9EFE71E790000ED7800000679000018
:1005F40010B503780446082B90B021D14378012B21
:1006040008D1154804F09CFE204610B0BDE8104007
:10061400FFF70ABE032B08D1104804F091FE2046D0
:1006240010B0BDE81040FFF7A9BF022B08D10C4859
:1006340004F086FE204610B0BDE81040FFF726BF48
:1006440040226946072005F05EF918B1402168464A
:1006540000F052F810B010BD337900003979000071
:100664004279000070B5044688B08368DB6BDBB95F
:100674001E4D1F4EA368DB6ADBB120469847C0B904
:100684001C4DA368DB6913B12046984778B120223A
:100694006946284605F026FE0246F0B9A3689B6920
:1006A4002BB12046984702E098470028E0D108B0D3
:1006B40070BDA3681B69002BE2D020226946204646
:1006C4009847021EDCDD6946284605F0EBFD00284C
:1006D400D0D0304604F00CF8CCE7A368DB68002BDC
:1006E400CFD0694620469847CBE700BF10080020CA
:1006F400E4000020FC070020F8B504460D46144E23
:10070400304606F022FBD0B1E4B1DDB1EFF311873E
:10071400202383F31288BFF36F8F0E482A462146A5
:1007240005F0C0FD87F31188BFF36F8F68B1B3681C
:100734005B690BB90020F8BD30469847FAE76FF0C3
:100744001200F8E76FF01500F5E76FF06800F2E7C4
:1007540008720000FC07002010B5164C204606F075
:10076400F4FA38B914480121144A05F07EFE6FF0FA
:10077400120010BD124B134A4FF480611A6000221C
:100784001961C3E90122DA600F48104BC3E9000282
:10079400C3E902221961A36823B11B6C13B120467B
:1007A4000B499847A3681B6A0BB10248984700207D
:1007B400DFE700BF08720000F47400005E790000F7
:1007C40010080020B00F0020B00B0020FC07002010
:1007D400690600002DE9F04F4D4C93B04FF0FF3205
:1007E4004FF0FF334B4803F0B7FFDFF82C81402272
:1007F400404602A905F076FD07460028EED022689F
:10080400464EC2F50073BB4215D2A2F500753D44B5
:10081400954228BF154675B1A2EB05094A463046F4
:10082400711906F014FCC4F8009002212B463C4ACE
:100834003C4805F023FE25683A46701902A93D4458
:10084400DFF8E4A0354FDFF8DC9006F0F3FB256019
:100854002268012ACBD93378062B19D17378EBB1EE
:10086400052AC4D975886DBAADB2B5F5807F26D98D
:100874002E4902F1FF3B5A46481E06F0E8FBC4F835
:1008840000B002212B464846294A05F0F7FDDFE770
:10089400152BE5D10321274A224802E003214846CB
:1008A400254A05F0E2FD2568022DA5F1020504D9CB
:1008B4002A462249881E06F0CAFB2560C8E705F1CE
:1008C400060B5A4593D304352946384604F0F1FF04
:1008D400725B034652BA92B282420BD0022148465E
:1008E4000092524605F0D4FD25681049013D2A4680
:1008F400481EE0E73846FFF77BFE25685D45A5EB1B
:100904000B05DAD92A46384606EB0B01D3E700BFBC
:10091400F8070020E400002010080020B00900209F
:1009240074790000F47400000A7A0000B109002010
:10093400E1790000C3790000A5790000B209002024
:1009440010B598B003211A4A1A4805F08EFDFFF736
:1009540003FF38B10121184A164818B0BDE8104009
:1009640005F083BD00220023CDE9062307234FF4BD
:100974008052CDE90203CDE90000104B10490490E8
:10098400104803F04DFF402108A8FFF703FC04467C
:1009940040B1032107480C4A05F067FD214608A829
:1009A400FFF7AAFE00214FF4A47006F0AFFAF9E7AE
:1009B400567A0000D4740000707A0000D907000051
:1009C40000140020F8000020817A00002DE9F04F87
:1009D40091B0009302F004030293C2F3C203013303
:1009E400840705460E46DDF868800392059340F0BF
:1009F400BB81041D30B1072909D86FF01B0011B069
:100A0400BDE8F08F01F007063444C6F10806009BE8
:100A14004FF000094FF0040A591E4FF0FF334F46C0
:100A24000193CB465346CDF810900DB1009A226045
:100A34000598002800F3E8809848009A824203D37E
:100A440097488242C0F0E080039AA4EB050E920717
:100A54004FEA9E0000F103810F2F00F2B180002DB8
:100A640000F0058107F140020DEB020C019A0CF82D
:100A7400200C0CF8102C049801300490E7E07A283C
:100A84005DD84B280ED8472859D829282DD8252891
:100A940052D054D820287AD02338D0F1000B4BEB15
:100AA400000B74E04C382E2849D8DFE800F0704879
:100AB400484848484848484848484B4848484848AF
:100AC40048484859484B4B595959704B6D487048E0
:100AD400184B184848827F4B48484B487F000020F9
:100AE4004FF0000B4FF0040A38E001222A38C0B25C
:100AF40002FA00F010EA0E0F49D110F0625C2FD117
:100B040010EA020B43D06046013C5444B4FBFAF4AF
:100B14000AFB04F4002D61D0A3EB050CA444B445F6
:100B24003FF66BAF002868D1042B47D158F8043B3B
:100B34002360042304342AE0019A013A01924FF01D
:100B4400000B24E011F8010C6C2834D1002011F8BA
:100B5400023C83466C2BC5D14FF0080A5346D3E7B9
:100B640008F1070828F00708073424F00704F8E818
:100B740002AB35B106982044B0423FF63EAFC4E91B
:100B840000AB4FF0000B08344FF0080A534611F83D
:100B9400010F002878D0BBF1000F7FF470AF252837
:100BA400F5D14FF0010B019B013301934FF0040A7F
:100BB400ECE7584694E700208346A5E7082B02D0CB
:100BC4006FF015001BE708F1070828F00708F8E89C
:100BD4000223C4E9002308230834D8E768B9042BA6
:100BE40002D108F10408A4E7082BE9D108F10708A9
:100BF40028F0070808F10808EDE7059A013A05927C
:100C040058F8042B009210E7039A900720D54FF070
:100C1400010CA4EB050E4FEA9E00BEF5007FCFD277
:100C24000F2FCDD8F5B107F140020DEB020E019A5A
:100C3400C0B20EF8200C0EF8102CBCF1000F3FF4DB
:100C44001AAF60F07F000EF8200C09F1010901379A
:100C5400C5F108024FF6DA7E0434069297E74FF0A6
:100C6400000CDAE7BCF1000F01D00136EFE702987F
:100C740002360028EBD10098CDE90631FFF760FA7F
:100C8400DDE906310644E2E7631BB3F5806F97D2D2
:100C940045B9A6F10804E018B1E600BF8071000070
:100CA400D0820000029A9B0828602B709DF81030B7
:100CB400C2B1EB7085F80290B9F1000F05D00022A3
:100CC40008A8C5F1010C97420ED14FF0000AC5F1F6
:100CD40001030DF1200801930DF1300B574512D19A
:100CE400601B8CE66B70E5E710F8013B190608D52C
:100CF4000CEB040EB64503F07F033FF67EAE04F81A
:100D0400013B0132DFE7B9F1000F03D098F900206D
:100D1400002A17DB029BD3B11AF80B2004F8012B2D
:100D24000022019B18191044B0423FF666AE98F8B1
:100D34000000009904F8010B2046039206F07AF9AA
:100D4400039A14440AF1010A08F10108C6E798F865
:100D5400002055F822300093029B009845F8223079
:100D6400FFF7EEF9421CDCE76FF00D0047E600BF29
:100D74002DE9F04F97B000AFD7F880B03B62CBF3CA
:100D8400C0030446894690F802A0FA62BB6141B9E7
:100D9400457800780AEB800020444D4517D8A0EB35
:100DA4000409E378FB61BAF1000F02D01BF0010FD4
:100DB40016D1FB6953BBFB6A1BB1494620463A6A0C
:100DC40098474D4628465C37BD46BDE8F08F461C23
:100DD4003046FFF7B5F90130304409F10109DCE789
:100DE400626823787A62FA6A9900796104EB830174
:100DF400002A40F001810E464FF000084D4601EBF9
:100E04000A094E454CD101EB0A0610E01BF0020F13
:100E1400D1D023789A007A61626804EB83017A6204
:100E2400FA6A002A77D14D46904601EB0A061BF078
:100E3400050F0CBF02230123FB62FB6906EB430A87
:100E44000BF00203BB625645BCD016F8021B16F821
:100E5400013C54F82390994B994502D3984B9945FA
:100E640036D3BB69002B40D0786A04F055FE0028C5
:100E74003BD0E9468AB06A46924B53617B6AC2E929
:100E840006314FF4007313848F4B42F8103F002354
:100E94004FF412518D4800F017FD023DCD46D2E7C4
:100EA40016F8013BF96254F82300FFF749F9D7F823
:100EB4008430F96A01304BB1D7F8883098453EBF89
:100EC400D7F8843023F8180008F10108054498E79E
:100ED400BB6923B1786A04F01FFE0028C9D11BF056
:100EE400010F05D1FB6AED1AADE7BB6A002BAAD04E
:100EF4004846FFF725F9D7F8843053B1D7F888303E
:100F040098453FBFD7F88420431C22F8183008F1D5
:100F14000108054497E7BAF1000F73D01BF00406EB
:100F240073D0D046002607F1480052463B61B962AF
:100F340006F080F8B96A3B6901EB0A02BA62FA6901
:100F4400F9695200FA60BA6A02EB41023A610BF0A5
:100F54000202BA603A69B96A8A4258D162781BF0CF
:100F6400020F18BF00217A6208BF4FEA5801B21875
:100F74001BF0010FD2B240F09F801BF0040F14BF8E
:100F840040460020BB616270A070E17020463A6A5E
:100F94007969FB6A9847051EFFF614AFBB694146A1
:100FA40023707B6A3A6A6370FB6984F802A0E37079
:100FB40007F14800FB6A9847B0F10008C0F2BA8014
:100FC4007B69A9EB0A01C91AFB683A6AC91AD7E90D
:100FD4000A0398470028C0F2AF804FF0000BA844E2
:100FE40008EB000507F1380AB34571D300213A6ACA
:100FF4000846FB6A9847E5E656464FF0000807F1B5
:10100400380092E75646D04696E7B04694E7BA6A67
:1010140012F8021B12F8015CBA6254F82500274A40
:10102400904202D3264A90421ED3BA6932B1786AFA
:101034007B6004F071FD7B6800288BD1BA6802BB29
:1010440008F1280207F1300C08F10100944407F17B
:10105400580208F1020852FA80F00CF8101C5FFAEA
:1010640088F800F8105C75E7BA693AB1786A7B6071
:1010740004F052FD7B6800287FF46CAF1BF0010F75
:1010840009D006F1280207F13000711C161806F881
:10109400205CCEB25EE71BF0040F3FF45BAF08F1B7
:1010A400280207F1300008F1010102EB000808F8FA
:1010B400105C5FFA81F84DE7002063E7807100005F
:1010C400D0820000A17A000004000001DC7400005A
:1010D4001BF80A3054F8239087F83730D7F8843057
:1010E4002BB3D7F888309B4521D2D7F8843033F816
:1010F4001B8001213A6AFB6A07F1370098470028F0
:101104001ADB0544B8F1000F06D14846FFF718F87A
:1011140000F101081FFA88F8414648463A6AFB6A1A
:101124009847002808DB05440BF1010B5CE74FF0FE
:101134000008DEE7454645E6054643E6014B1860F0
:10114400704700BF0000002080B505460E461746D4
:10115400984603F0B3FD034606F006F80446DFF8AC
:101164001890424649F8003039463046A84754F8AA
:10117400090001F049F900BF080000002DE9F0471B
:10118400058B04462807904611D4022905F007056B
:1011940040F0CC80204604F05FFF78B10138218B09
:1011A400042811D8DFE800F0C2106D8595000129EC
:1011B4000CBF45F0100545F02005258388F3118800
:1011C400BFF36F8FBDE8F08701F0070AAA4500F06E
:1011D400A5800027B9463E46A368002B00F0BC80DA
:1011E40041F00801218388F31188BFF36F8FA16850
:1011F400002900F0BA800D68002900F0B68033465B
:1012040052462046D1F80480C047002D76D02B6882
:1012140029461D46F0E701F007035A1F012A1BD88F
:10122400002221F00701062B276889B2C4E90022B5
:1012340009D13B4603E0628B013262831B68002BB9
:10124400F9D141F002012046218304F005FF002872
:101254007AD041F0200176E0042B0AD121F0070175
:1012640089B22046218304F0F7FE10B141F0200139
:101274002183218B01F0070AAA454FD00027B946E4
:10128400AAE7236921F0070141F00601062DD3F8EE
:10129400009021832DD1B9F1000F3FD041F0080116
:1012A400218388F31188BFF36F8F20463949C847DB
:1012B40029E021F00701236941F0040189B2042DDA
:1012C400D3F804902183E6D000274FF0040A3E4669
:1012D40082E721F00701236941F0050189B2052D58
:1012E400D3F808902183D6D000274FF0050A3E4654
:1012F40072E700274FF0060A3E466DE72B4687E764
:10130400B9F1000FD1D1EFF31188202383F31288B0
:10131400BFF36F8F238B23F008032383258BEA0607
:101324002ED525F01003238305F007056669218B6C
:10133400002EBFF670AF00232768C4E9003321F004
:10134400070141F001012183218B4FF0000901F0D5
:10135400070AAA457FF440AF002F9CD041F0080152
:10136400218388F31188BFF36F8F002FC8D03D68A5
:10137400394633465246204604F09AFE2F46F4E797
:10138400AB067FF51BAF25F02003238305F007058B
:1013940000E700BFE16000002DE9F047044607467E
:1013A4004FF00109DFF8508014B93846BDE8F087E2
:1013B40094FAA4F5B5FA85F509FA05F32E0108EBBC
:1013C40005156FEA030A24EA03042B7B002BEBD0F8
:1013D40058F806301B694BB9464473680422284602
:1013E400196807EA0A0704F0D0FFDDE728469847A2
:1013F4000028D9D1F0E700BF3475000030B50022D1
:1014040089B00F490F4805F0EDFD002200230024A8
:10141400CDE906230E230C4DCDE903344FF440727D
:101424002846CDE90144094B0949009403F0F8F931
:101434000849284605F0D4FC204609B030BD00BF59
:101444005D140000000600207801002071170000E0
:1014540000240020557B0000014803F049B900BF77
:10146400D40000202DE9F047804621480F4604F0BF
:1014740070FF0646002833D000252846BDE8F087D3
:10148400237B83B12368DB680BB1204698476368EC
:1014940083F8069023681B69D3B963680422204645
:1014A400196804F072FF013610345445E8D3B8F1DA
:1014B400000FE2D0002DDFD02846FFF76DFF054670
:1014C400002FF7D000214FF4A47005F01FFDF1E7C1
:1014D400204698470028E0D009FA06F31D43E2E7C6
:1014E40005464FF00109034CDFF80CA0DDE700BF0F
:1014F400340800203475000044750000014B53F893
:10150400200070476C75000008B5034608462BB1EF
:10151400044A136000F06EFC002008BD6FF0150053
:10152400FBE700BF0400002010B5044C237813B976
:10153400034803F0DDF80123237010BDB01300202D
:10154400D400002010B50446094804F002FF3CB161
:10155400084BD3E8EF1F0139C3E8E21F002AF8D192
:10156400054805F04BFDBDE81040044803F0C0B841
:101574002C0800203008002000060020D4000020A1
:1015840000200146034BD3E8EF0FC3E8E21F002A13
:10159400F9D170472C08002070B5FFF7F1FF05461C
:1015A400074C084EB44200D370BD63685B792BB11D
:1015B40023685B6813B12946204698471034F1E745
:1015C400347500004475000010B5044C04492046ED
:1015D40004F0DBFB034B1C6010BD00BF980000202F
:1015E400587500002408002000230D4A10B513701C
:1015F4000C4A4FF4004113600B4A0C481360FFF788
:1016040083FFFFF7E1FF0A4B0A4918468B4200D3D8
:1016140010BD1A1A5C681211013222711033F5E7F9
:10162400B11300202C080020300800205363000070
:10163400347500004475000001460022002301486F
:1016440004F0C4BB98000020014804F05DBC00BF56
:1016540098000020024B0146186804F0A9BC00BFA2
:1016640024080020014804F0DEBC00BF98000020DC
:1016740070B5274B1878002849D0FFF7E5FF0546D9
:10168400002841D1234B244C1B68002B19DD05F0A5
:10169400A7FC4FF47A72A0FB020302FB0131C30BD7
:1016A40043EA4143D4E900209B1A40F2E9324FEA6D
:1016B400D13161EB0001934271F1000101D3FFF7D5
:1016C4006BFFD4E9003213F57A7342F10002C4E9E6
:1016D4000032BDE87040FFF7C5BF63685B7923B192
:1016E4002368294620461B6898471034B442F4D333
:1016F4002846FFF7AFFF094BD3E8EF1F0139C3E8D2
:10170400E21F002ABED0F7E7054C064EEEE770BD97
:10171400B01300202C080020F80500203008002019
:10172400347500004475000070B50D4D297861B919
:101734000120FFF797FE0B4C0B4EB44206D3FFF784
:1017440097FF0028FBD101232B7070BD63685B7980
:101754001BB1236820469B6898471034EDE700BF0F
:10176400B1130020347500004475000000212DE9F8
:10177400F0470846FFF776FE044658B340F2676820
:101784004FF0000905F0F0FC1B4B1C4A1B5813607A
:1017940033B11B4B1B68092B02DD1A4802F0A8FF6A
:1017A4000025194FDFF85CA044B12046FFF7F4FD93
:1017B400044618B94FF0FF384FF0FF39FFF758FFD0
:1017C400064628B9B5B942464B46504602F0C4FF16
:1017D4003546E9E74FF0FF384FF0FF39D2E72B6881
:1017E4009B691BB100222846114698471035BD421B
:1017F400F5D3E8E7054DFAE70800000028080020C3
:1018040030080020D4000020447500003475000026
:1018140013B5184804F09DFD174B1B7873B1EFF313
:101824001184202383F31288BFF36F8FFFF720FF07
:1018340084F31188BFF36F8F02B010BD0F4B1B6888
:10184400002BF9D050B9002200230D48CDE9002324
:101854004FF40042002303F035FDEDE70928EBD1F6
:10186400074805F0CBFB074802B0BDE8104002F082
:101874003FBF00BF30080020B1130020280800201B
:1018840000060020D400002010B5064B04461B6857
:1018940098472146A060044804F017FBBDE81040B7
:1018A400FFF7B6BF0400002098000020044A054B4F
:1018B4009B1AB1EBD30F34BF52F8310000207047AC
:1018C400D4740000347500002DE9F04F8FB0C1F3DB
:1018D4004A2804AF0D469146B8607B600C0DB8F100
:1018E400000F63D000264FF0040B4FF00A0A07F1F3
:1018F4001403C7F80C80C7E907667E620193CDF82C
:1019040008B0CDF800A007F11C0332464846F96838
:10191400FFF72EFAB0F5006F03461CD36C468AB06D
:10192400D9F8041004AB26481A46C3E9050140F26D
:10193400FF71D9614FF400711984224B42F8103FB2
:101944004FF4125133462048FFF7BEFFA5462C370B
:10195400BD46BDE8F08FC0F30A0804F1170018442F
:1019640020F0070080083B60FFF766FE68F353250C
:10197400044690B13B6800F11001C7E9083607F14D
:101984001403F961CDE900A3CDF808B048460F4A25
:10199400F96807F11C03FFF7EBF968F353252A46AE
:1019A40020467B68B96804F010FDD0E704F1170005
:1019B40020F007008008FFF73FFE0446EDE700BF74
:1019C4006A7B000004000001FC740000A1630000B5
:1019D4002DE9F04F87B00446DDE9105ADDE91279AC
:1019E400934698460391BFB13B46524610210020CE
:1019F400CDF80090CDF81490FEF7E8FFB0F5006F35
:101A040006460AD340F2FF730221174A174807B06B
:101A1400BDE8F04F04F032BD3E4605F117003044F6
:101A240020F007008008FFF707FE04F007040BF01E
:101A3400070BE40044EA8B1444EA462444EA0554C0
:101A4400054640B13FB13B4652463146CDF8009081
:101A54001030FEF7BBFF434622462846039907B0E1
:101A6400BDE8F04F04F0B1BCA97B0000FC74000099
:101A7400406820B1034BC01A40F3CF0070474FF0C9
:101A8400FF307047D47400000EB403B503AB53F8B1
:101A9400042B01460448019300F0D8FF02B05DF81E
:101AA40004EB03B0704700BFE3640000CA0605D42A
:101AB4008B064CBF02490349FFF7E6BF704700BFDE
:101AC400E27B0000E17B00002DE9F04F89B09B46EA
:101AD400149B9DF84CA00693159B04460593169BF6
:101AE4000D469046179E0493BAF1000F00F09D80B6
:101AF40006F48073079304F046FC06F002090246DC
:101B040000283ED020469149FFF7BEFF0746B9F1B1
:101B1400000F08D016F0440F35D12A4620468C49D0
:101B2400FFF7B2FF074406F0010353B1894B204687
:101B340053F82A20884B8949002A08BF1A46FFF720
:101B4400A3FF06F48073002B49D006F00803002B92
:101B540063D1B8F1000F66D0424620468049FFF7B2
:101B640093FF0546069B3D44002B6DD1049B002B3F
:101B740073D1F30700F1E48031462046FFF796FF66
:101B8400D8E00746C3E7774B18680028CAD0764BDD
:101B94004FF47A791B684FF03C0CB5FBF3F5B5FBB9
:101BA400F0F14FF4616300FB115509FB05F5B1FB3E
:101BB400F3F2B5FBF0FE03FB121100FB1E55B1FB63
:101BC400FCF309FB05F5B5FBF0F50CFB13112046FE
:101BD4000091CDE901E56549FFF756FFA2E706F05C
:101BE4000803EBB1624B204653F82A206149FFF702
:101BF4004BFF0546B8F1000F05D042462046584930
:101C0400FFF742FF0544BBF1000FABD05A46204614
:101C14005949FFF739FF0544A4E74FF0000BE1E70A
:101C240006F00805E6E745469CE7BBF1010F069B75
:101C340006D1002B64D1049B002B7BD000250CE043
:101C4400002BF8D04D485CE04D48069B22464D4998
:101C540003F031FF049B002B68D0DFF82C81DFF800
:101C64002C91049F3146102F204628BF10274FF097
:101C7400000BFFF71BFF5D4545DC059B49462046ED
:101C84001A78FFF701FF4FF0010B1BF0070F03D188
:101C940041462046FFF7F8FE5F453BD9059B494680
:101CA400204613F80B20FFF7EFFE0BF1010BBBF1FD
:101CB400100FEAD14FF0000B20463549FFF7E4FE40
:101CC4005A46059B20469A5CA2F120015F2928BF51
:101CD4002E223049FFF7D8FE0BF1010BBBF1100F98
:101CE4001DD01BF0070F03D141462046FFF7CCFE61
:101CF4005F455A46E5D841462046FFF7C5FEEBE767
:101D04001F485546A1E741462046FFF7BDFE0BF1AB
:101D1400010BB0E720462049FFF7B6FEC5E7059B57
:101D24003B440593049BDB1B04939AD1BAF1000F47
:101D34007FF41FAF204609B0BDE8F04F04F0C2BBEA
:101D44002046054A0549FFF79FFE15E7E97B000099
:101D5400ED7B00007C750000E47B0000127C000039
:101D6400157C00003C08002038080020F67B0000A9
:101D740090750000197C00001F7C000011650000B4
:101D8400E3640000512A00002C7C0000247C000045
:101D94002E7C0000307C00002A7C000042F20F738D
:101DA40073B58B4228BF0B46056804460521684677
:101DB4000D4A03F0F7FA0646636828460B225B686F
:101DC4000A4904F071FB63683246694628465B6839
:101DD40004F06AFB63681B2228465B68044904F02C
:101DE40063FB02B070BD00BF407D00004F7C00006B
:101DF400337C000000210123064A904206D8064A9B
:101E040001B901231360054B186070470121400894
:101E14005B00F2E740420F00380800203C08002035
:101E2400F8B50D460446064F4618B44201D128467B
:101E3400F8BD14F8011BBB6801485B689847F4E7D8
:101E440028720000014B036000207047D875000021
:101E54002DE9F04706460C4600AF002936D0D1E9FB
:101E64000012E9468AB06D46A3684FF0050AA846F9
:101E74001F48C5E90723C5E9050148F810AF002349
:101E840042464FF421511B48FFF71EFDD4E90312CB
:101E9400CD466369AD461848C5E90723C5E9050180
:101EA400C5F810A0002342464FF421511148FFF712
:101EB4000BFDCD46E3690121104A0E4804F0DEFA19
:101EC400A36901210E4A0B4804F0D8FA012E07D168
:101ED400EFF305830B4A31460648103B04F0CEFA73
:101EE4002146304602F06EFABD46BDE8F08700BFD9
:101EF400957C00001C750000C47C0000F37C00008D
:101F0400027D0000307D000030BFFFF7FDBF00BF41
:101F14002DE9F04105460B4EDFF82C80324606EBE6
:101F24000807CC1B2046094905F084F8A01942464D
:101F34000021083C05F0A5F82C6707F10800BDE86E
:101F4400F08100BF000000000400000044750000A0
:101F5400054B5A699B689A421FBF044A536843F071
:101F640080535360704700BF8409002000ED00E0F7
:101F740070B52A4C06460D4629482A4904F04DFB03
:101F8400A36ADB0647D52648274904F046FB1120FF
:101F9400A36A1C0704D52248244904F03EFB1220FE
:101FA4001E4CA36A990712D521491D4804F035FB3C
:101FB400636BA26A120609D501211E4A184804F06F
:101FC4005DFA1EB1A36A23F08003A3621320134CAD
:101FD400A36ADE0704D51248174904F01EFB142037
:101FE400A36A9C0604D50E48144904F016FB152078
:101FF4000A4B9A6AD10658BF9A6A9A6A920642BFF5
:102004005A6A22F400525A629A6A42F0FF029A62B1
:1020140000232B7070BD1020BAE700BF00ED00E074
:102024001C750000437D0000597D00008C7D00007C
:102034009F7D0000B77D0000CD7D0000EC7D000099
:1020440010B5244C2449254804F0E7FAA36A990101
:102054003ED52248224904F0E0FA1E20A36ADA01A0
:1020640004D51E481F4904F0D8FA1F20194CA36A4E
:10207400DB0204D519481C4904F0CFFA0220A36AF4
:102084001C0304D51548194904F0C7FA2120114C42
:10209400A36A590304D51148154904F0BEFA222055
:1020A400A36A9A0304D50D48124904F0B6FA232012
:1020B400084CA36ADB0304D508480F4904F0ADFAC1
:1020C4002420A36A6FEA03436FEA1343A36210BD9B
:1020D4001D20C3E700ED00E01B7E00001C7500001E
:1020E400337E0000467E0000607E00008A7E000091
:1020F400A87E0000CD7E0000E77E000070B5294C6C
:1021040006460D462848294904F087FAA36AD904EB
:102114003CD52548264904F080FA1720A36A1A05FD
:1021240004D52148234904F078FA18201D4CA36AE9
:102134009B0512D51C48204904F06FFAA36BA26AD0
:10214400100409D501211D4A174804F097F91EB15E
:10215400A36A23F40043A3621920124CA36A59050D
:1021640004D51148164904F058FA1A20A36ADA056E
:102174000ED50D48134904F050FA1B20094A936AFE
:1021840043F47F43936200232B7070BD1620C5E790
:10219400A36A9B04F2D504480B4904F03EFA1C20C0
:1021A400ECE700BF00ED00E01C750000127F0000AA
:1021B400287F00008C7D0000397F0000527F0000E2
:1021C400677F0000827F0000EC7D00002DE9F04174
:1021D4008AB0654B0446D3F80480002600AFC8F3E8
:1021E400080586F31188BFF36F8F02F07F43B3F1C4
:1021F4007F4F07D102F00C03082B12D15B495C48D6
:1022040004F00BFA002634460023FB71EB1E092B65
:1022140000F28980DFE803F00A7F827B8787878763
:10222400878510074CBF0C460126EDE751495048FD
:1022340004F0F3F900234C4DFB71EB6A9A0705D5C2
:102244004D494B4804F0E9F9002331E0EB6A002BD7
:1022540001DA4A49F5E7EB6A5B00F5D54849444899
:1022640004F0DBF96B69A26943F480736B61BFF31B
:102274004F8FBFF36F8F6B6932F8022C23F4807396
:102284006B61BFF34F8FBFF36F8F4DF602739A42AA
:1022940007D0AB6ADBB26BB30120F91DFFF768FE10
:1022A40037E023680121374A314804F0E7F823680E
:1022B400FA79DAB907F1080504F1200C2A462068F6
:1022C4006168083403C264451546F7D17A6A002E62
:1022D40045D0C2F3080121B96FEA52226FEA4222C3
:1022E4007A62184607F10801FFF7B2FD2837BD46A8
:1022F400BDE8F081AB6A13F47F4F04D00120F91DCF
:10230400FFF7FCFE05E0AB6AB3F5803F9CD3FFF713
:1023140097FE0346CCE70020F91DBFE70020F91D16
:10232400EEE719498DE7194A18F4F87FE8468AB0B0
:10233400174B18BF13466A461649103DC2E90513E8
:102344004FF400731384144BD56142F8103F0023FB
:102354004FF411510648FFF7B7FAC54674E722F463
:10236400FF7222F00102BBE700ED00E0C87F00002D
:102374001C750000F37F00000A8000002B80000021
:10238400398000005880000074800000AF7F000096
:102394009A7F00009880000004000001064B5A69EF
:1023A40042F010025A615A6942F480625A615A69D1
:1023B40022F008025A61704700ED00E0EFF3088054
:1023C400EFF3098101B57246FFF700FF01BD00BFBD
:1023D4000B4880F3088801F0A7FA202080F31188C5
:1023E40008484FF40061401880F30988EFF3148023
:1023F4000221084380F31488BFF36F8F00F09CF828
:102404004034002000270020084B9B6883420BD1F6
:10241400EFF3058343B1064B5A6842F080525A6089
:102424005A6A22F400425A6202F04EBC8409002027
:1024340000ED00E014498A684FF030001044EFF3D7
:10244400098C80E8F01F202080F31288BFF36F8F7F
:102454000E4F4FF000664A698A603E60106F0C4C64
:102464002060506F0023536780F3118802F130001D
:1024740090E8F01F8CF3098802F1000004B504F021
:10248400D4F8BDE8044070478409002004ED00E05E
:10249400640800201EF0040F0CBFEFF30880EFF374
:1024A4000980816911F8021C0229FFD001B5724626
:1024B40004F0A8F801BD00BF40B2002807DB0123E7
:1024C4004109034A00F01F00834042F8213070475D
:1024D40000E100E0054B420953F82220012300F0FB
:1024E4001F0003FA00F01040704700BF00E100E055
:1024F40040B2002801F10101ACBF00F16040064B7D
:102504004FEA4111C9B2ABBF00F5614000F00F00C2
:1025140080F800131954704714ED00E0044B054A89
:1025240023F07F039360BFF34F8FBFF36F8F704728
:102534000000000000ED00E008B5FFF7EFFF0B4AD4
:10254400D2F8883023F47003C2F88830EFF3148390
:1025540023F0040383F31488BFF36F8F02F01EF893
:1025640002F0D8FC00F046F802F058F800ED00E064
:1025740042F8203C009B0B4942F81C3C019B21F093
:10258400010142F8183C029B42F8081C42F8143C32
:102594004FF0807342F8043C0023203A02654367FD
:1025A400704700BF4D11000000B50D4B15469860F3
:1025B400026F0C4B0E461A60036E83F30B882C4695
:1025C40086F309880020044B984720460021002206
:1025D4000023024C204700003D6600004D1100001E
:1025E40084090020640800201022014B1A617047FE
:1025F40000ED00E0002320210348C2180133412BE1
:1026040082F80013F9D1704700E100E008B5EFF358
:102614000583064A103B02EBC30152F833004968B4
:102624008847BDE80840FFF793BC00BF487200002C
:102634001FB5094C094A23460121094800F012F943
:1026440000230393074B0121E41A01A80193029488
:1026540000F012F904B010BD006001200000002059
:10266400D8750000F800002010B50C7A0B6804F04F
:102674001F0223F01F031A43CB68640923F01F03CE
:10268400054943EA440343F00103C1F89800C1F843
:102694009C20C1F8A03010BD00ED00E010B50A4B3D
:1026A400D3F89030C3F30723013B984208D90121A2
:1026B4000346064A064803F0E1FE6FF0150010BD1C
:1026C400FFF7D2FFFBE700BF00ED00E0AF800000A2
:1026D400147500002DE9F04F8946144606464FF064
:1026E4000008514D85B0C84527DAD6F804A0BAF1E0
:1026F400000F44D0BAF11F0F17D91AF01F0F14D1CD
:10270400D6F800B01BF01F0F0FD1584603F0B7FFE7
:1027140007460AEB0B00013803F0B1FF874210D0E3
:102724006FF01507414A3B4601E04346404A012108
:10273400404803F0A3FE6FF01504204605B0BDE841
:10274400F08F17F1160FEDD0BC42EBDDC5F8987091
:10275400D5F89C10C5F89870D5F8A03021F01F0169
:1027640043F01F0BD6E900321A44994202F1FF3AB2
:102774001DD1D34507D13146F8B203F089FF08F1E2
:1027840001080C36AFE73146C5F89870D5F89C308F
:1027940022F01F0203F01F031343C5F89C30E0B27C
:1027A40003F076FF10F1160FC5D0441CE7E7C5F817
:1027B4009870D5F8A020013B23F01F0302F01F02FC
:1027C4001343D3453146E0B2C5F8A030E8D003F056
:1027D4005FFF10F1160FAED0C5F89870D5F89C20A5
:1027E4009DF808300BF1FF3B62F304038DF80830C9
:1027F400D5F8A0309DF808205B0863F347128DF8E4
:102804000820D6E900321344009323F01F035B44ED
:10281400A3EB0A03013023F01F036946C0B20393FC
:10282400FFF73CFFBEE700BF00ED00E0F8800000CA
:10283400D5800000147500000522044BC3F89420D1
:10284400BFF34F8FBFF36F8F704700BF00ED00E001
:10285400BFF35F8F0022024BC3F89420704700BF80
:1028640000ED00E010B5034C2278FFF733FF207031
:1028740010BD00BFB31300202DE9F74F294D8A4640
:1028840006464FF00008AB46274FD0451BDAD6F872
:102894000490B9F1000F3FD031680846019103F06C
:1028A400EEFE0199044609EB0100013803F0E7FE4E
:1028B40084424FF014021D4B08D002FB08F36FF062
:1028C40015024BF8032003B0BDE8F08F14F1160F86
:1028D4002C60F8D01978A142F5DD02FB08B0C7F8E6
:1028E4009840C7F89840D7F89C4000F10801007B55
:1028F40064F304000871D7F8A0000C79400860F371
:1029040047140C71D7F89C1021F01F016960D7F8A7
:10291400A01021F01F01296108F1010814350C36BB
:10292400B3E700BF6808002000ED00E0B313002007
:10293400F0B54149414CD1F890302568C3F30723E1
:102944009D4287B075D80020FFF782FF3C4BC1F849
:10295400C030854216D13B4C01A82570FFF772FAAE
:1029640000250646384FAE4213D100202378324961
:10297400D1F89020C2F30722934254DBFFF75CFFA7
:1029840000202FE0616801EB0011FFF76DFE0130BC
:10299400DFE70199280101EB0513DA683A40B2F543
:1029A400001F21D0B2F5800F2BD0B2F5801F38D193
:1029B4005A689B680958013B22F01F000344012018
:1029C400844623F01F0340EA4C10CDE902218DF820
:1029D400100002A920780593FFF760FE00281DDA95
:1029E4006FF0150007B0F0BD5A689B680958013BA9
:1029F40022F01F0003444FF0020C012023F01F03B8
:102A0400E1E75A689B680958013B22F01F00034420
:102A14004FF0000C062023F01F03D4E72378013382
:102A2400237001359FE7C1F89830C1F8A000013345
:102A34009EE74FF0FF30D5E700ED00E0E4750000BD
:102A4400AAFF4400B31300200000F0FFF0B587B0E4
:102A540007460E4614460021102268461D4604F01F
:102A640010FB02238DF80230054B2A4621466846A6
:102A7400CDE90476019302F0C1FC07B0F0BD00BFBC
:102A8400C766000008B5024B1B689847002008BDC4
:102A94007C080020034B044A1860937843F0020337
:102AA400937070477C0800201000002008B5064988
:102AB400064821F00701C1F1005202F5B03202F0DC
:102AC400BDFF002008BD00BF47340020800800205F
:102AD4000122024B0020C3F84025704700900350A8
:102AE40020B1034B800143F001031847704700BF36
:102AF40050750000084B70B5C31A0D4607499B106A
:102B0400044659434022064803F0EFFD2B46014694
:102B14002046BDE870401847A0080020B76DDBB61A
:102B2400C8710000402373B50B4C0093041B0B4683
:102B34000D460A49A41061430646094A094803F0B0
:102B4400FFFD011E05DA30462B4602B0BDE8704099
:102B5400184702B070BD00BFA0080020B76DDBB6F7
:102B6400AD670000C871000010B5EFF31184202395
:102B740083F31288BFF36F8F074A136823F00201AF
:102B8400DB07116002D4012004F07CF884F311887F
:102B9400BFF36F8F10BD00BFF008002070B5002296
:102BA400012104460520FFF7A3FC0F4800F0E2FFD3
:102BB4000E4B984215D100F0EDFF26690C493046C2
:102BC40003F099FA00280BDB0125356424690849D0
:102BD40004F11C0003F08FFA002801DB0020E564F7
:102BE40070BD6FF00400FBE7F12C00000000AD0B9A
:102BF400107600001FB500220123CDE902236B46A5
:102C0400084ACDF800D0CDF804D003F0C6FD002862
:102C140005DB4FF480420023684601F09DFD05B0BA
:102C24005DF804FBCB6700000C22104B014602FB4D
:102C34000033002030B4D3E90E529863EFF31180CF
:102C4400202484F31288BFF36F8F1C6C04F0C0043B
:102C540044F002041C6480F31188BFF36F8F1DB12C
:102C64002B4630BC0248184730BC7047A0080020EF
:102C7400C871000010B4EFF31182202383F312888B
:102C8400BFF36F8F1748016841F002040460C8075E
:102C940007D482F31188BFF36F8F012010BC00F0BA
:102CA4008DBF4FF05021D1F80C04D1F80C14C90792
:102CB400EFD5EFF3118083F31288BFF36F8F0A49C6
:102CC4000B6C03F0C00343F002030B6480F3118820
:102CD400BFF36F8F82F31188BFF36F8F002010BC96
:102CE400FFF7A2BFF0080020A008002010B10128BF
:102CF40004D07047034B1B6C5B0701D1FFF794BFF3
:102D0400704700BFA00800202DE9F04101220746CA
:102D14003649D1E8EF3FC1E8E02F0028F9D133B9B3
:102D2400334934484B60CB608A6003F0F7F97B1E6B
:102D3400012B2BD8012F07D14FF05023D3F81C348B
:102D440003F00303022B21D004F044F80546F8B93C
:102D5400294B1B78E3B14FF0502302220646C3F8F7
:102D640008234FF05024DFF89480D4F81824D4F8C2
:102D74001834D20315D503F00303022B01D0012F1D
:102D84000FD16DB386F31188BFF36F8FBDE8F08167
:102D9400EFF31186202383F31288BFF36F8F01258D
:102DA400DFE7C5B1304603F05BFCD4F81835DBB27D
:102DB400012BDAD1D4F80421002AD6D00022C4F899
:102DC4000421D4F804210222C4F818252022C8F8CA
:102DD4008021A360C9E70021212004F097F8E4E7EB
:102DE4004FF050230222C3F80423CFE79C080020AD
:102DF4008C080020BC080020F813002000E100E04B
:102E040008B5074803F0A1FF38B10648FFF742FEB2
:102E14000448FEF793F9002008BD6FF01200FBE7A9
:102E2400287200002D2E00000A2838B50446074DEC
:102E340004D1AB680D2128465B689847AB6803480A
:102E44005B68E1B29847204638BD00BF2872000095
:102E5400430970B507D10B4B596821B101250C68A2
:102E6400094E854001B970BD8A682A4002D03046B7
:102E74004B6898471CB1236821461C46F2E7234659
:102E8400FAE700BFF4080020E87100002DE9F043E0
:102E940040F206354668D00648BF0320337B02EA79
:102EA400050558BFC2F3401087B001F01F07B5F500
:102EB400837F144647EA43178DF8030041D00FD8A7
:102EC400062D18D007D8B5B1022D3CD06FF01500EF
:102ED40007B0BDE8F083B5F5807FF7D101250AE09E
:102EE40040F20222954230D0B5F5407F2FD0B5F59F
:102EF400007FEBD1022522032BD5012372688B407E
:102F04009360326962BB07F01F037F0975D13D4AA4
:102F140084F4803102EB8302D2F80032C1F3004121
:102F2400C4F3404423F4E16344EA410423F0070377
:102F34001C4344EA800444EA0524C2F80042002009
:102F4400C6E70725D7E70425D5E70525D3E70325F5
:102F5400D1E7630341BF012372688B40D360D0E79C
:102F64001036394630460DF1020201F0DDF814F452
:102F7400403F80460CD13946304603F0DDFE224BFB
:102F84009845DCD130469DF8021001F00DF9D6E7E2
:102F94004FF0000901AB3946304603AACDE90439A4
:102FA400CDE90199CDF80C9000F08CFF164B9842B6
:102FB4008CD114F4003315D09DF8033084F480349C
:102FC400C4F300448DF80E3039464B46304603AA0C
:102FD4008DF80C508DF80D4001F028F80A4B9842FA
:102FE400CDD073E7CDE9043339460DF10303304600
:102FF40003AA039300F066FFF0E7803352F823300E
:10300400FFDE00BF002584500000AD0B38B54568D5
:103014002B69B3B11035284601F0BCF8044680B9D9
:103024000146284601F092F8084B98420BD12246FB
:103034002846074901F072F8224605210D20FFF7C2
:1030440057FA002038BD6FF00400FBE70000AD0B19
:10305400552E0000F0B51646426801F01F04107B9F
:1030640087B044EA4014106900286DD0B6F5001FFB
:1030740002F1100506D12146284603F05FFE002028
:1030840007B0F0BD0027B6F5800F01A8019747608F
:1030940037D1B3F1007F14BF052304238DF8043026
:1030A4000023CDE90403039393680DF1030723FA86
:1030B40001F111F0010139D1B6F1A07F36D104F04C
:1030C4001F03620903F1800344D1244A52F82330D8
:1030D400DB072BD43A462146284601F025F8204B3D
:1030E400984219D002972146284603AA00F0EAFE26
:1030F4001C4B98422BD101222146284601F064F84A
:10310400BDE7B3F1C06F05D0B3F1007F14BF012355
:103114000223C3E70323C1E73946284601F04CF8EC
:10312400104B9842DED06FF00B00A9E73A462146D7
:10313400284600F0F9FF0B4B9842D4D128469DF85D
:10314400031001F031F8CEE76FF0850098E76FF0D7
:10315400150095E751F82330FFDE00BF00258450A9
:103164000400AD0B0000AD0B2DE9F04740F2FF1653
:10317400594FDFF868C1DFF868E100EB8101814253
:1031840002D10020BDE8F087046814F4804FC4F332
:10319400C325C4F3080340F08C80240EB34208BF57
:1031A4004FF0FF337D5D192C00F28680DFE804F0D8
:1031B4000D13191C1F251C84848484366084848424
:1031C40084848484848463787B7EC2F80C355C1C9C
:1031D4005BD10430D3E7C2F814355C1CF9D0002469
:1031E4005CE0C2F80835F2E7C2F81035F5E75C1C7C
:1031F400C2F80835EDD0002404E05C1CC2F80C359C
:10320400E7D001245FEA531859D14FF00109DFF8E0
:10321400CC8009FA03FAC8F80CA008E0C2F8083513
:10322400002DDAD15C1CD4D000240625A146D0F8A8
:1032340000A00AF40048B8F1000F1CBF4FF00009C9
:10324400012403F01F085B093FD10CEB8808D8F870
:103254000032CAF3412A03EA0E0343EA8A0343EA2B
:10326400052343EA090343EA4403C8F80032B0E7FC
:10327400C2F80C35D4E7C2F86035B3F1FF3F0468F7
:10328400A7D0C4F30044002CBBD05C091AD101249C
:10329400DFF8488004FA03F9C8F80890A146C6E7A5
:1032A400C2F86435E9E7C2F86835E6E7C2F86C3578
:1032B400E3E76FF0150065E76FF0850062E7002330
:1032C400DB60FFDE00239B60FBE7002308F180083E
:1032D40053F82830F5E700BF5F81000000258450D3
:1032E400F0F8FCFF2DE9F04104460D46476803F071
:1032F40071FD4FF0200888B9264B1B7873B1642602
:10330400606803F067FBF0B9012003F05BFC013E49
:10331400F6D10021212003F0F9FDF0E7EFF3118647
:10332400314688F31288BFF36F8F606803F052FB55
:10333400A8B986F31188BFF36F8FEFE786F311887E
:10334400BFF36F8FE5E7EFF31186314688F31288F8
:10335400BFF36F8F606803F03DFB0028EED0BB69BC
:1033640000201D706368BA691B68C3F844250122F4
:10337400C3F84825C3F82001D3F82041C3F8580105
:10338400D3F858019A6081F31188BFF36F8FBDE8B9
:10339400F08100BFF8130020F8B505464468012108
:1033A400E06803F06BFB6B681A682369C2F8243584
:1033B400617D237D0B43A17D0B43C2F86C356E68A0
:1033C400D6E9004313F001034AD02F6907F10C003A
:1033D40000F0CAFB2F4B984207D02F4801212F4AF7
:1033E40003F043F86FF00400F8BD387B04F10C02DD
:1033F40004F5907103F0E8FB387B012707FA00F02D
:1034040000F0ACFB0823C4F80035B369C4F84435B4
:103414000023C4F84835A760D4F85831002BFBD0FA
:103424000026C4F800656B683146D86803F026FBB3
:103434006D683146E8682C6803F020FB0823C4F863
:1034440000352A7A52B9EB69C4F834350123C4F83B
:103454003835C4F81021D4F8102123600020C3E7C4
:103464000822C4F80025B269C4F84425C4F84835D4
:103474000123A360D4F82031002BFBD00023C4F82F
:103484002031D4F820310123E3604FF48073C4F871
:103494000433C1E70000AD0B2C7500006781000008
:1034A4000123834070B5DC430B4AD2E8EF1F01EAE5
:1034B4000405C2E8E65F002EF7D14FF48032824063
:1034C4000648C0F80823BFF35F8FBFF36F8F0B422A
:1034D40014BF0120002070BD0409002000500150D9
:1034E40070B40E4922F07F46D1E90034D01AC318D3
:1034F40044F10004C1E90034A6F50013B3F5400F0C
:1035040009D2074B1B681A0A1B069C19054B42F18A
:103514000005C3E9004570BC01F0D6BD4806002093
:103524000809002050060020D9B101230D4A834028
:10353400D2E8EFCF4CEA030CC2E8E1CF0029F7D17F
:103544004FF48033084A8340C2F80433074BD3E86E
:10355400AF3FC340DB0742BF4FF40012044BC3F834
:103564000021704704090020005001500009002088
:1035740000E100E00D4B1868010A0006BFF35F8FFD
:103584000B4BD3F80435181841F10001B3F5801F33
:103594000AD2084BD3E90023904271EB030303D210
:1035A40010F1807041F10001704700BF080900204C
:1035B40000500150500600202DE9F04F85B016460A
:1035C4001F4604469DF840A0FFF76AFF0190FFF7ED
:1035D400D1FFB04271EB070352D23B4B301A67EB79
:1035E4000101984271F100014DD2384B03EB0413F1
:1035F400D3E902239F4208BF964258D04FF4803843
:10360400334908FA04F8204626F07F4BC1F8488372
:1036140003F0A6FA4FF00309584604F15005AD0033
:10362400ADB205F1502504F5A87305F58035029374
:10363400029A20F07F4341F82230C1F84483D1F844
:103644000435244AC01A033820F07F4090422ED912
:10365400286868B1D1F80435A3EB0B0020F07F4053
:10366400B0F5000F039322D9204603F079FA039BA7
:10367400BAF1000F07D109EB030009F10109D7E7FB
:10368400BAF1000F09D06FF0150520460199FFF734
:103694004BFF284605B0BDE8F08F01230E4AA34036
:1036A400D2E8EF0F1843C2E8E10F0029F8D1074927
:1036B4000E982301C8500F9B01EB04120025C2E9A8
:1036C40002675360E1E700BF010080003806002074
:1036D40000500150FDFF7F00000900207FB5002548
:1036E4004FF0FF304FF0FF31194C1A4B0226C4F84B
:1036F4000833C4F84833184BC4F80855C3E9020129
:103704004FF480334FF40012C4F80433134B0121F7
:10371400C4F804631520C3F880212A46FEF7E8FEA6
:103724001520FEF7C9FE01230D4AA3602360136030
:103734000C4B0D4A009328460023CDE90155FFF7B1
:103744003BFF3046FFF7E0FA284604B070BD00BFE7
:103754000050015003000F003806002000E100E093
:1037640004090020E5340000FFFF7F002DE9F74342
:103774002E4BD3F8042390070BD5D3F8042142B180
:103784000022C3F804212A4AD3F804311368013310
:103794001360264AD2F80433D90326D5254BD3E83F
:1037A400EF1F21F00100C3E8E40F002CF7D1CB0791
:1037B40002D4D2F84031C3B100251C4CC4F84051A6
:1037C400D4F84031FFF7D6FEEFF31182202383F3C0
:1037D4001288BFF36F8F184BD3E90267B042B94127
:1037E40006D282F31188BFF36F8F03B0BDE8F08374
:1037F4004FF0FF38D3E900104FF0FF391D60C3E9E3
:1038040002894FF48033C4F84833C4F84051D4F8E3
:10381400403182F31188BFF36F8F0029E5D0009007
:1038240032463B4628468847DFE700BF0050015038
:1038340008090020000900203806002030B5431C88
:10384400124C85B005D08442A8BF0446012CB8BFF1
:103854000124FFF78FFE0E4B0C4DD3E90013401AE1
:10386400B0F5000F0FD22218AA4228BF2A46002022
:1038740052180849CDE90100009143F10003FFF714
:103884009BFE05B030BD2A46F1E700BFFFFF7F0075
:1038940048060020E534000008B5FFF76BFE024B34
:1038A4001B68C01A08BD00BF4806002008B5EFF326
:1038B4001083012B0C4A07D1126ABFF34F8F511C9E
:1038C4004A424A41104608BD03F05AF900B172B6A3
:1038D400126ABFF34F8F531C5A425A4103F050F9F6
:1038E4000028EFD062B6EDE70080FF0008B5EFF3E3
:1038F4001083012B0B4A06D1D269BFF34F8F02F01C
:103904000102104608BD03F03BF900B172B6D2695A
:10391400BFF34F8F02F0010203F032F90028F0D018
:1039240062B6EEE70080FF0010B503F029F930B16C
:103934004FF050230022C3F81421C3F8182103F0D8
:103944002EF928B101225F4BC3F8382AC3F8782531
:103954004FF47F02D2F83031D2F83421BFF34F8FC5
:10396400C3F30B03092B05D1012A1EBF0122554BBA
:10397400C3F8782503F013F918B10E22524BC3F89B
:10398400E42E03F0FDF830B100224E4BC3F80C27AF
:103994000122C3F810270022D30003F57F03D3F8D4
:1039A4000013BFF34F8F013108D0D3F80013013255
:1039B400D3F80433B2F5807F0B60EDD1EFF31084BC
:1039C400FFF794FF00284DD0BFF34F8F3F4BD3F840
:1039D4000024012AFBD1C3F80425D3F80024012ACA
:1039E400FBD1012C03D003F0CBF800B172B6FFF782
:1039F4007DFF58B1364AD36923F00103D361BFF385
:103A04004F8F324AD2F80034012BFBD1FFF74EFF1F
:103A140068B12F4A136A23F0FF0343F020031362B3
:103A2400BFF34F8F294AD2F80034012BFBD1012C6C
:103A340003D003F0A5F800B162B60022234BC3F80B
:103A44000425D3F80024012AFBD1BFF34F8F214969
:103A5400214BCA6802F4E0621343CB60BFF34F8F7B
:103A640000BFFDE7FFF722FF0028ADD1194AD2F8C5
:103A74008C3043F44063C2F88C304FF47F03D3F8A6
:103A84003021D3F83431BFF34F8FC2F30B02092A2C
:103A940016D1013B022B02D8104AD35C83B10C48E7
:103AA4000F490368094A8B420CBF5A230023C2F80A
:103AB400103EC36A8B420CBF5A230023C2F8003E57
:103AC40010BD00BF0040005000A003500090035000
:103AD4000080FF0000ED00E00400FA05AA81000068
:103AE400FA50FA5030B50468ACB1B4FA84F3012248
:103AF400C3F11F03DBB29A4024EA0202D0E8EF5F6D
:103B0400A54204D1C0E8EC2FBCF1000FF6D1EAD1F4
:103B140002480B7030BD0248FCE700BF0000AD0B4B
:103B24000200AD0B10B50368CB40DB0710D40123B2
:103B34008B40026843EA0201D0E8EF4F944204D17B
:103B4400C0E8EC1FBCF1000FF6D1F2D1014810BD62
:103B54000148FCE70000AD0B0400AD0B014BC3F8BA
:103B640004057047007001500146014800F0B6B8E2
:103B740068000020044B1A7922B9012218601A71D6
:103B840002487047024870470C0900200000AD0B42
:103B94000C00AD0B08B5084B1B6833B10520FEF7CC
:103BA40099FC10B90520FEF787FC4FF05023012241
:103BB400C3F8182508BD00BF0C09002010B510B1CA
:103BC400012847D010BD4FF05023D3F81814D3F870
:103BD4001824C90322D502F00303022B05D0012BBC
:103BE40002D0002002F0F7FF01234FF05022022000
:103BF400C2F8183508224FF48273002103F15023D0
:103C040019601C68012402F150221460164A1268DB
:103C140022B34FF05023C3F80403D3E7D3F814249A
:103C2400D207E1D5D3F81C2402F00302013A012A99
:103C3400D7D80D4A12681AB10222C3F80423C1E787
:103C4400D3F80421002AFBD00022C3F80421D3F8BE
:103C54000431B7E700224FF48073CEE71A68002AD4
:103C6400FCD019601B68ADE70C090020F8B54FF0D3
:103C7400502301250026D3F80443174F04B9F8BD97
:103C8400B4FA84F0C0F11F00830003F580739BB283
:103C940003F1502305FA00F21968D2B224EA0204AF
:103CA4000029EBD01E601B684FF05023022AC3F892
:103CB40008230DD1D3F81814D3F8181401F0030114
:103CC400012905D1C3F81825C3F804239960D5E761
:103CD4003B68C0B29847D1E70C0900200079024B39
:103CE40003EB0010FFF7FEBE70000020036803F032
:103CF4001F025B090260024818BF0020704700BF22
:103D04000025845070B5C3B20C4C083334F813301A
:103D14000546DA050E4607D5C3F3432304EBC30275
:103D2400526854F833309847A3682BB1314628467B
:103D3400E268BDE87040184770BD00BF1409002058
:103D4400024611F0010004D003490B6A13600B62B0
:103D540003B90020704700BF0025845010B4124AF4
:103D6400C0B2083032F81030D9051BD5C3F3432153
:103D740023F4F85322F81030002002F10E0434F832
:103D8400023F13F4807F03D0C3F34323994209D045
:103D940001302028F3D1002342F83130034810BC0D
:103DA400FFF7C0BE10BC7047140900206C09002046
:103DB400F0B5044600200125064601F1A05101F5A5
:103DC4005151104A89008A420BD10F4BD3F87C2100
:103DD40032B10022C3F87C21D3F87C3140F000409A
:103DE400F0BD02F13043A3F551439B0805FA03F3F8
:103DF4001C4204D0176817B11660176818430432C0
:103E0400E1E700BF00D1005000D00050CBB2024621
:103E140008460D49083331F81330990611D599072E
:103E24000FD4012110685B0B9940C0F80813126885
:103E340002EB8303D3F8102522F00302C3F8102504
:103E44007047002102F069BF14090020F7B5194E2C
:103E5400CDB2083536F815300746DB070C4626D5B3
:103E6400FFF7D4FF36F815309A0608D55A0B3B688D
:103E740003EB82030022C3F81025C3F81025204663
:103E8400FFF76CFF002301A826F815300194FFF713
:103E94002DFF019B00EB8300D0F80022064B13405A
:103EA40043F00203C0F80032044803B0F0BD0448F4
:103EB400FBE700BF14090020F0F8FCFF0000AD0B85
:103EC4000400AD0B2DE9FF41136807460C46164666
:103ED400FBB1DFF84881CDB2083538F8152002F07F
:103EE4002202222A22D000222046CDE900228DF887
:103EF4000E208DF80F200DF10E010DF10F0202F0CE
:103F0400C3FE38F8153023F0020343F0010328F808
:103F14001530736863B393F800C058683F4AE3B23E
:103F2400083332F813108D0702D5C8B13C4822E09B
:103F340021F02001C904C90C22F8131080B1BCF18E
:103F4400030FF3D870683D68406890F800E005EB13
:103F54008E05BCF1000F11D1C5F810C5C5F810C508
:103F640032F8131021F01C0141EA8C0122F81310DD
:103F7400B3684BBB2B4804B0BDE8F081D5F810857D
:103F840041EA4E3128F00308C5F810853D6841F038
:103F9400200105EB8E05D5F8100522F8131020F446
:103FA400473020F44070C5F810052002D5F810758C
:103FB40000F4F85040EA0C403843C5F8100502EB11
:103FC4004E00A0F85C40CBE72046D3E90067FFF73A
:103FD400C5FE002ECED0114DD5E90023964203D163
:103FE4009F4201D1002209E00F480DF10F01FFF7B4
:103FF40079FD0C4B9842BED19DF80F20E4B205EB3D
:10400400C20308345F6035F8143045F8326043EA7F
:10401400422343F4807325F81430ABE714090020DD
:104024000400AD0B0000AD0B6C0900202DE9FF412D
:1040340007460C461E4612B3DFF8D480CDB20835CD
:1040440038F81530980701D4990621D413F01C0FC1
:1040540002D05378012B1BD001238DF80F3000239D
:104064002046CDE900230DF10F01931C013202F02B
:104074000BFE38F8153043F0030328F81530002EF2
:1040840044D0234DE1B2083135F81120930703D40D
:10409400204804B0BDE8F081002096F800E03B68B9
:1040A40022F02002D20403EB8E03D20CC3F81005D5
:1040B40025F81120C3F8100596F801C04FEA8E08C0
:1040C400BCF1000F22D03868B6784044D0F81035DF
:1040D4004FEA0C4C23F4981323F4F853C0F810352A
:1040E400230203F4F8530CF4403C3605D0F8107561
:1040F40043EA0C0306F48016334342EA4E323B4350
:1041040042F02002C0F8103525F811200248C0E71B
:10411400140900200400AD0B0000AD0B014BC3E9F2
:104124000212704714090020054BC9B2083133F854
:104134001130990643BF5B0B024813700248704765
:10414400140900200000AD0B0400AD0B70B50E4C3B
:10415400064694F86C50A5B94022294604F1100093
:1041640002F08FFF3068C0F87C51D0F87C3140F306
:104174000730FEF7A1F90123044884F86C30A365E5
:1041840070BD0348FCE700BF140900200000AD0B1C
:104194000C00AD0B034B93F86C00003818BF0120E2
:1041A400704700BF140900200079024B03EB800024
:1041B400FFF7B8BC800000200079024B03EB8000BD
:1041C400FFF790BC8000002073B5CBB20C462149A8
:1041D400083331F8133001689D0619D513F002062F
:1041E40016D15B0B9C0004F580754E51495901684A
:1041F4002144D1F8104544F00104C1F810452AB116
:104204000122016802FA03F3C1F8043302B070BD5D
:10421400D1F80423C3F38203002AA4BF4FF0004261
:10422400C1F80423042B11D0052B11D001A801944B
:10423400FFF75CFD019A0369D34003F00103991C65
:10424400204602B0BDE8704002F067BD0321F7E7E5
:104254000221F5E7140900202DE9F3474F4B08210B
:10426400D3F80403C0B240F00040FFF7A1FD051EDF
:1042740016DA00230121684600930127FFF760FD49
:10428400DFF81C81009999B94FF00040FFF790FDC9
:1042940001216846FFF754FD0028F3D125F00045BD
:1042A40001243E4E3E4F002D63D102B0BDE8F0879D
:1042B40091FAA1F4B4FA84F4E00804F1080338F89C
:1042C400139004F007021DF8003007FA02F223EA03
:1042D40002030DF8003001A80194FFF707FD019BCC
:1042E4004FEA9901803350F82360C9F3820A4B07DF
:1042F400D146C6F3014621D520465146FFF702FDBB
:1043040001A80194FFF7F2FC019BF6B2803350F848
:104314002330C3F301439E4207D10021204602F01B
:10432400FCFC3146204602F0F8FC01A80194FFF79A
:10433400DDFC019B07FA03F30362A3E7022E0CD111
:104344000321204602F0E9FC0AF00503012BECD11D
:1043540049462046FFF7D6FCE7E70221204602F053
:10436400DCFCBAF1030FF3D0032EDED1BAF1020F55
:10437400EDE795FAA5F3B3FA83F304FA03F225EA19
:10438400020503F5A27256F8221007EB4303B3F8B3
:104394005C00C1F30141FFF7B5FC84E700D0005095
:1043A4001409002010B50446FDF7BEF903480121A5
:1043B400034A02F05AF8204602F0D2FC1C750000B1
:1043C400AD8100002DE9F84304460D4600AFEFF33C
:1043D4001188202383F31288BFF36F8F0428294A9E
:1043E40098BF294BE9468AB09668117C98BF53F868
:1043F40020306A4688BF254BC2E9073140F20133B9
:1044040023489384234BC2E9050442F8103F002358
:104414004FF431512048FDF757FACD4645B1EB69C9
:10442400C3F3080323B101211C4A1B4802F01DF801
:104434002EB1304602F0D7FC08B1037803B918480E
:10444400E9468AB06A46174BD061C2E9053640F2A4
:1044540001331384144B42F8103F00234FF41151DD
:104464000D48FDF731FA2946CD462046FFF79AFF5D
:1044740088F31188BFF36F8F3046FDF7C5FFBD4643
:10448400BDE8F88384090020D4760000BC810000D4
:10449400D2810000050000011C750000FA810000B3
:1044A400CA8100001B8200000400000138B50A4BD9
:1044B40053F82040013053F82050A54200D838BDAD
:1044C400606830B1037FDB0701D402F051FC08348B
:1044D400F3E723689847FAE7E8760000012270B50D
:1044E400294B032086B01A70FFF7E0FF00F022FF8B
:1044F4000420FFF7DBFF254C254D2646AE4204F190
:10450400300410D300F0E6FA204C224EAC4226D3FD
:1045140000F0F4FAFCF714FA1F4A137B23F00103AA
:10452400137306B070BD54F80C3C059354F8103C5A
:10453400049354F8143C039354F8183C029354F82D
:104544001C3C019354F8203C009354E90A2354E999
:104554000C0100F027F954F8303C5E65CDE7D4E94E
:104564000A23B3F1FF3F08BFB2F1FF3F05D052EA7F
:104574000301206803D100F07DFB3034C6E73146E7
:10458400183000F011FDF8E7F81300205074000013
:1045940050740000DD6E0000D806002008B5034802
:1045A400034A0021121A02F0FAFB08BDF8000020A9
:1045B400FC1300200023012270B586B0CDE904234A
:1045C4000F220193CDE9023214234FF4A0720E4D51
:1045D4000E4E03FB00550E4906EBC016044602FBC3
:1045E40000110C4B3046009500F0DCF8737B2C7402
:1045F40023F004037373084B013403EBC423EE600C
:104604006B6006B070BD00BF84090020580600200E
:10461400002F0020AB6D000000270020BFB5002054
:10462400FFF744FF2A4B03F5006282F3088883F303
:104634000A880024E023274D274F85F82230EC77A1
:104644002C766C76AC7685F820406B6A43F4E023D4
:104654006B6285F82340FDF7A1FEFDF7C5FF4FF01F
:10466400FF33AB62EB62FEF763F9FDF7E1FFFCF7A2
:10467400BBFF1A4800F000F902F066FB0120FFF7C7
:1046840015FF0220164DFFF711FF00F06BFA154BD2
:1046940015495D61154B4FF480620593012328464B
:1046A400CDE90343CDE901443B46009400F07AF898
:1046B40006466A7B284622F004026A7302F0CFFBA6
:1046C4002046FFF777FF3A4631462846FDF76CFF50
:1046D4000027002000ED00E0E1440000580700201E
:1046E400D806002084090020403000207D8200008C
:1046F40070B5EFF31186202383F31288BFF36F8F15
:104704000468A0421AD0CCB1D4E900320025136069
:104714005A60637BC4E9005523F002036373A56008
:1047240004F1180002F030FC2046A56702F097FB64
:104734003146BDE87040074800F0A6B9D0E902321E
:104744009A4218BF0133836086F31188BFF36F8FD9
:1047540070BD00BFF913002013B5EFF311812024BD
:1047640084F31288BFF36F8F846844B1013C846082
:1047740081F31188BFF36F8F002002B010BD52EA9D
:10478400030406D181F31188BFF36F8F6FF00F001C
:10479400F3E7CDE900230246014800F053F9ECE7C2
:1047A400F91300202DE9F043984685B000F1580331
:1047B400C0E91633109B002603730423073222F04A
:1047C400070543730F9B01EB05090F4683734946A5
:1047D400C0E906668660C6730446FDF799FB0E9B26
:1047E400073020F00700A066C4E9187502930D9BFA
:1047F400A9EB000901930C9B4A46009339464346B2
:104804002046FDF7B5FE054B66659B6803B1DB6E7C
:104814004846E36605B0BDE8F08300BF8409002084
:10482400F0B5002587B00595109DDDE91276049555
:104834000F9D044603950E9D02950D9D01950C9DBB
:104844000095FFF7AFFFB6F1FF3F08BFB7F1FF3F99
:1048540005D056EA070305D1204600F00BFA20469E
:1048640007B0F0BD3A46334604F11800014900F0A0
:104874009BFBF4E7DD6E000040F20113838100230B
:10488400C0E91833C366014B98607047840900205F
:104894006FF00A01084A93689967084958674B689A
:1048A40043F080534B60002383F31188BFF36F8F71
:1048B4009368986F704700BF8409002000ED00E002
:1048C40070B590F90D20437B002A36DBD90634D12C
:1048D4001B4C63F07F032246437352F8183FE1698F
:1048E400934207D1C0E900210860E06111E09942D8
:1048F400F8D01B68002BF5D090F90E5093F90E6098
:10490400B542F4D0AE42F2DD5968C0E90031086026
:104914005860A569954200D005B9E568A3685A7B3B
:10492400D20604D1DA897F2A01D9AA6932B1AB420D
:1049340002D0284600F096FA656170BD6361FCE719
:104944008409002038B590F90D200146002A437BE4
:1049540004DA03F07F03437302F047FA0D4D2A464D
:1049640052F8184FAB68944200D004B9EC688B42FB
:1049740007D05A7BD20604D1DA897F2A01D9A269E9
:104984002AB1A34202D0204600F06CFA23466B61A0
:1049940038BD00BF84090020B3F1FF3F08BFB2F166
:1049A400FF3F03D00249183000F0FEBA704700BF41
:1049B400DD6E000070B590F90D200146002A437B9E
:1049C40004DA03F07F03437302F00FFA1C4C4B7BB1
:1049D400224663F07F034B7352F8183FE069934219
:1049E40007D1C1E900200160E16111E09842F8D0EB
:1049F4001B68002BF5D091F90E5093F90E60B54267
:104A0400F4D0AE42F2DD5868C1E90030016059606B
:104A1400A569A368954200D005B9E5688B4207D023
:104A24005A7BD20604D1DA897F2A01D9AA692AB12C
:104A3400AB4202D0284600F015FA2B46636170BDE4
:104A440084090020F8B5DDE906670D4B0C4698682B
:104A540011460C4A1060EFF31182202282F312886F
:104A6400BFF36F8F9D68284602F0D1F9284632467D
:104A74003B46FFF791FF2046BDE8F840FFF708BF2B
:104A840084090020A409002049B9EFF3058030B956
:104A9400054B5A699B689A4201D0FFF7F9BE81F32E
:104AA4001188BFF36F8F704784090020034648B90B
:104AB400EFF3058232B9064A51699268914201D0F6
:104AC400FFF7E6BE83F31188BFF36F8F704700BF13
:104AD40084090020EFF31181202383F31288BFF3AC
:104AE4006F8F054B9A68D37B013BD37381F3118895
:104AF400BFF36F8F704700BF8409002070B5EFF3D8
:104B04001186202383F31288BFF36F8F144DAB6893
:104B1400DA7B0132DA732A4652F8184F944200D0F5
:104B240004B9EC685A7BD20604D1DA897F2A01D908
:104B3400A2692AB1A34202D0204600F093F9234689
:104B44006B6186F31188BFF36F8FEFF3118020231D
:104B540083F31288BFF36F8FBDE87040FFF7A6BFE1
:104B640084090020024B03F11802C3E906227047AE
:104B74008409002070B5EFF31186202383F3128893
:104B8400BFF36F8F1B4CA168E0690B68814214BFAF
:104B94001A46002249680B605960A368E1692AB982
:104BA400154AC3E900210B60E3610CE093F90E00A0
:104BB40092F90E50A84218D0854216DD5168C3E917
:104BC40000210B605360A5690B4B9D4200D005B9D1
:104BD400E568A3689D4202D0284600F043F9656168
:104BE4003046BDE87040FFF753BE8A42D8D0126801
:104BF400D5E700BF840900209C090020F8B550EADD
:104C0400010306460C4603D1FFF7B4FF0020F8BDAC
:104C1400EFF31187202383F31288BFF36F8F124DB4
:104C2400124BA8681860FFF78DFEA8682346324629
:104C34000F49183000F0B8F9AA680446537B384687
:104C440043F004035373FFF723FEAB68D3E90A234D
:104C5400B3F1004F08BF002AD8D102F0BDF9201AE1
:104C640020EAE070D3E700BF84090020A4090020F3
:104C7400DD6E000038B50446EFF31185202383F37D
:104C84001288BFF36F8F437B5B070FD5183002F098
:104C94007BF9637B204623F004036373FFF710FE64
:104CA4002946BDE838400448FFF7EEBE85F3118875
:104CB400BFF36F8F38BD00BFF9130020014B986814
:104CC400704700BF840900202DE9F8430446077BA0
:104CD400EFF31185202383F31288BFF36F8F437B97
:104CE400190705D585F31188BFF36F8FBDE8F883E5
:104CF400D90943F008025DD14273A36813B1204679
:104D040002F07BF804F1180002F03EF9A66D04F1FC
:104D14005808B04511D04FF0000976B1304602F082
:104D24006CF806F1180002F02FF93046C6F87890B6
:104D3400FFF7C6FDA66DB045EFD1DFF8C080D8F807
:104D440008309C423ED1EFF30589B9F1000918BF40
:104D54004FF00109D8F81860294A964200D00EB9DC
:104D6400D8F80C60B34202D0304600F07BF82046FD
:104D7400C8F8146001F05DFCB9F1000F02D02148BD
:104D8400FFF77AFDD8F808309C4231D1EFF3058360
:104D940073BB227BD20718D42846FFF779FDFB07A3
:104DA400A4D5002383F31188BFF36F8F042318461F
:104DB40002DF9BE703F07F0343F00803437302F031
:104DC40014F89AE74FF00009C4E785F31188BFF39C
:104DD4006F8F83F31188BFF36F8F0423184602DFAC
:104DE400EFF31180202383F31288BFF36F8FD4E78E
:104DF40085F31188BFF36F8FD1E700BF84090020CA
:104E04009C090020580700200122044BC01A044BBF
:104E1400C0105843034B1A54704700BFD8070020F2
:104E2400ABAAAAAAF9130020C3897F2B12D80A4B74
:104E34001B6863B1094B90F90E201B689A4209DB89
:104E4400437BDB0606D1064BC31A18BF012303F0CC
:104E5400010070470023FAE784000020A80900201D
:104E64005806002070B50E4B0E4C1E7C054606EB12
:104E7400460304EBC304204602F086F800220A4BE2
:104E840028469A55FFF7D0FF48B1084B2046BDE8A5
:104E940070401A680649013AD31700F085B870BD0E
:104EA40084090020D8070020F91300208400002082
:104EB4000D4E000038B5EFF31185202383F31288DB
:104EC400BFF36F8F104B114A9C681068A04206D143
:104ED400FFF7C8FF85F31188BFF36F8F38BD00213A
:104EE4001B7C11600A4AD35C002BF3D02046FFF7E9
:104EF4009BFF0028EED0637BDB0602D12046FFF740
:104F040059FD2046E4E700BF84090020A4090020DD
:104F1400F9130020074808B5074A0849121A01F096
:104F240040FFBDE808400648064A0749121A01F046
:104F340038BF00BF00000020F4000020D082000031
:104F44000000002000000020D0820000024B1868FE
:104F5400984208BF0020704788000020034B1B685C
:104F64000BB9FEF799BC0020704700BFAC090020C4
:104F740030B570B10B4B5B6898420AD0036843B1FB
:104F8400D3E90421D0E90445121941EB0501C3E931
:104F94000421D0E9003213605A600023C0E90033D1
:104FA40030BD00BF88000020B3F1FF3F08BFB2F15D
:104FB400FF3F2DE9F84F0446994615461F467AD01F
:104FC4008160EFF31188202383F31288BFF36F8F7E
:104FD400B9F1000FDFF8E4A020DBFFF7BFFFDAE947
:104FE4000027013549F100092D1849EBE073064605
:104FF4004FF00109C4E90453AD1843EB0707FFF769
:10500400A5FF0346DFF8B8E0DEF804A0EBB9C4E975
:1050140000EACAF80040CEF8044028E06FF001032B
:10502400DAE900125B1A4FF0FF3161EB02025B1BFD
:1050340062EB0902012B72F10001BCBF01230022C3
:105044004FF00009C0E90432D9E7D3E9041CD4E9DC
:1050540004208A4270EB0C0B24DA891A5A686CEB30
:105064000000C3E90410C4E9003214605C60FFF777
:105074006DFF84420ED1134B1B685BB9B9F1000F6D
:1050840002D1FFF76BFF0646304601F066FF0021B0
:10509400FEF7D4FB88F31188BFF36F8F2846394697
:1050A400BDE8F88F521A60EB0C009A45C4E904205D
:1050B400ADD01B68AAE700252F46EFE7F0070020D4
:1050C40088000020AC0900202DE9F047EFF311859A
:1050D400202383F31288BFF36F8FDFF8A09000269C
:1050E400C9F800000027FFF731FFDFF89480D9F8F2
:1050F4000030D8E900ECD91750B1D0E90442A342FA
:1051040071EB020A1BDAE41A62EB0102C0E9044201
:10511400002413EB0E034CEB01012046C8E90031D7
:10512400C9F8004001F019FF2146FEF787FB85F31B
:105134001188BFF36F8FBDE8F047FFF7BBBE14EBD8
:105144000E024CEBE473C0E90467C8E90023FFF7DF
:105154000FFF85F31188BFF36F8F83689847EFF3D0
:105164001185202383F31288BFF36F8FD9F80030A1
:105174001B1BC9F80030FFF7E9FEB8E7AC090020B3
:10518400F007002010B5EFF31184202383F3128875
:10519400BFF36F8FFFF7E2FE0346054AD2E9000131
:1051A400181841EBE37184F31188BFF36F8F10BDBE
:1051B400F0070020F8B50546EFF31187202383F3A9
:1051C4001288BFF36F8F036823B187F31188BFF38D
:1051D4006F8FF8BDD0E90A46611C46F1000202292E
:1051E40072F1000236D3012C76F10002BCBF012417
:1051F4001E46013C46F1FF3601F0F2FE013041F15A
:105204000001001946EB0101012871F1000130DBB6
:1052140001F0E6FE6FF00203013041F100010019D4
:1052240046EB010183426FF000438B4126DB01F022
:10523400D7FE013041F100016FF00102001946EB85
:1052440001034FF0FF31121A61EB030328461C4996
:10525400FFF7AAFE2B6B01332B632B6A93B93C46F1
:105264002B4653F8185F9D4200D0D5B984F31188BA
:10527400ADE76FF001024FF0FF33E7E700224FF094
:105284000043E3E787F31188BFF36F8F28462B6A47
:105294009847EFF31184202383F31288BFF36F8FB1
:1052A400DEE7284601F0EAFD0023AB6784F31188AA
:1052B400BFF36F8F2846BDE8F84001F0D0BD00BFB2
:1052C400B95100002DE9F04105461C4690461F46A1
:1052D400EFF31186202383F31288BFF36F8FB4F1A9
:1052E400FF3F08BFB2F1FF3F05D186F31188BFF33A
:1052F4006F8FBDE8F081002C09DB012A74F10003F3
:10530400BCBF0122002412F1FF3844F1FF372846C4
:1053140001F03AFEDDE906010023C5E90A012B6329
:1053240042463B4628460249FFF73EFEDDE700BF02
:10533400B9510000014800F016BC00BF858200008E
:105344000FB407B504AA064B52F8041B186801925F
:1053540000F054F803B05DF804EB04B0704700BFEC
:105364000C760000F8B50E4B06461D68AB789B071B
:1053740012D56F6816F8014B29462CB90A20B84794
:10538400002805DB204609E02046B8470028F1DA6A
:10539400AB7843F00403AB704FF0FF30F8BD00BFAF
:1053A4000C7600000CB430B589B005460C461C22BE
:1053B400002101A801F065FE022305958DF8063051
:1053C4000D4B029323462CB1B4F1004F28BF4FF08C
:1053D4000043013B1D440DAA0C9901A806950092B7
:1053E40000F00CF814B1059B00221A7009B0BDE856
:1053F400304002B0704700BF5B7100002DE9F04FF0
:1054040043688DB015468046029383789A0740F12D
:105414000D8100240E78002E00F00A81252E0BD079
:105424004B1C0393013441463046029B98470028A5
:10543400C0F2F6800399EDE74E788B1C252E03937A
:10544400F0D00027B946BB46BBF11F0F38D8A6F1F0
:105454002003102B0AD8DFE803F02A0909300909D0
:10546400092109090928092D09091F00A6F130039A
:10547400092B33D92A2E37D11BF0400F55F8043BA2
:1054840040F08280002BA7BF4BF0200B9946C3F15C
:1054940000094BF0280B01E04BF0010B039B13F8C0
:1054A400016B0393002ECFD130E04BF0020B4BF095
:1054B400040BF3E74BF0080BF0E74BF0100BEDE7B0
:1054C400BBF17F0F19D8A6F13003092BD2D81BF0FA
:1054D400400F03D00A2101FB0737DFE70A214BF015
:1054E400200B01FB0939D9E72E2E06D11BF0400F02
:1054F40040F09E804BF0400BD0E76C2E31D02BD87F
:10550400682E36D06A2E3CD04C2E3AD0002F46F06E
:105514002003B8BF2BF04002A3F16501BCBF0027F4
:105524001FFA82FB022901D9612B2FD107350727E6
:10553400DFF8ACA225F0070508351BF0080F66D08C
:105544000AEB070B56465E4563D1A4EB0A0AA9EBA6
:10555400070906EB0A026FE1742E9FD07A2E9DD0C4
:10556400D4E71BF0800F18BF4BF4007B4BF0800B8B
:1055740094E71BF4807F18BF4BF4007B4BF4807BD3
:105584008CE74BF4207B89E71F4687E7A6F163018C
:10559400122900F2F080DFE811F013004F00EE0052
:1055A400EE00EE00EE004F00EE00EE00EE00EE0026
:1055B400EE00FE00E900EE00EE001B00EE00AF007E
:1055C40055F8043B01270DF1180A8DF81830B4E79B
:1055D40055F804AB834BBAF1000F08BF9A461BF091
:1055E400400F504614BF39464FF0FF3101F051FDD2
:1055F4000746A2E741462020029B984700280FDB7C
:10560400013EB742F6D34C44B146A41B98E74E463C
:10561400F7E7414616F8010B029B9847002892DAF7
:1056240098F8023043F0040388F802304FF0FF3456
:1056340020460DB0BDE8F08F1BF0800F34D01BF472
:10564400007F2CD0073525F00705AA4669685AF86B
:10565400080B2BF010050029ADB237DA404245F4AF
:10566400806561EB41010DF1180B0A235A4601F0E4
:105674001CFDA0EB0B0301936B0662D5019B25F087
:1056840001019F4289B240F3A180002E00F099806D
:1056940015F0100240F09C80BB460D4623E0AA465C
:1056A4005AF8040BC117D4E7AA461BF4807F5AF8B2
:1056B400041B01D10846F5E71BF4007F19BF48B26B
:1056C40041F3C01108B241F3C031C2E750EA01030B
:1056D400C9D11BF0400FC6D0002FC4D12BF011024A
:1056E400BB46019795B240F2064115EA01021CBF80
:1056F4000BF1010B00222CE02BF010020A231FFAFD
:1057040082FB1BF0800C49D01BF4007115BF0735D8
:10571400AA4625F007055AF8040B1EBFAA46696875
:105724005AF8080B50EA010545D12BF016051BF079
:10573400400FADB242D0002F40D12BF01702019799
:1057440095B215F0100248D0019B002E42D103F10E
:10575400010B29075AD4EB0706D5D9456FDDA9EB10
:105764000B030199CB465F185B4649E04BF0100BE5
:1057740010237826C5E7782B04D1C6F1780343F0CB
:105784001003BEE741462520029B98470028FFF6F8
:1057940047AF023447E608230026B2E7AA461BF4C3
:1057A40080715AF8040BBDD01BF400711ABFC0B24B
:1057B400614680B2B6E72BF0060295B20DF1180BE4
:1057C40054E725F01105BB46ADB28CE70D46B8E7AA
:1057D4003B460D4603F1020BBBE7DDF804B082E75C
:1057E400C7820000C0820000CDE904324146202077
:1057F400029B98470028FFF613AF049B059A0133D8
:105804009945F1DCA4EB0B019B46CC180AB3414645
:105814003020029B98470028FFF602AF8EB901346E
:105824002744391B019B994224DC1D4655BB019A30
:10583400A9EB0B09554622441446914433E0019FD9
:1058440092E7023441463046029B98470028E7DA43
:10585400E6E640F206410D42E2D015F0020F04F1F3
:105864000104414614BF2B20202015F4806F18BF7B
:105874002D20E9E741463020029B01349847002857
:10588400CFDACDE606AB013D4146585D029B984711
:105894000028CBDAC4E641462020029B0134984715
:1058A4000028FFF6BDAEA9EB0403002BF3DCC1E531
:1058B400704730B50023AA22FF250144814213D149
:1058C4001344B3FBF5F1C1EB01215B1ADB43D8B2FE
:1058D40052FA83F3B3FBF5F2C2EB02229B1ADB43C9
:1058E400DBB243EA002030BD10F8014B2244B2FB86
:1058F400F5F4C4EB0424121B1344B3FBF5F4C4EB1A
:1059040004241B1BDAE7034682B0084661B1012A6E
:1059140085BF1522022000208DF8042082BF8DF857
:105924000530BDF804300B8002B0704730B1012956
:1059340003D90623038002207047002070471046D5
:1059440022B1072B94BF00230123D800704743BA28
:10595400024698B2B0F5617F23D8B0F5607F10D2CB
:10596400022A34D0B0F5007F16D840F201139A42CF
:1059740030D048F2011340F281109A4218BF00203F
:105984007047A0F56073042B04D8DFE803F02A0302
:105994002A2A2A000020704740F2032340F20230F2
:1059A400EBE7062A18D0B0F5C06F08D848F2040314
:1059B4009A4214D048F2041340F28140DDE748F2E1
:1059C40006039A420CBF4FF4D060002070474FF496
:1059D40000707047104670474FF4C06070474FF432
:1059E4009060704700EBC100408840087047F8B5EC
:1059F4000346FFF7F7FFB0FA80F0C0F11F0003EB96
:105A0400800CDCF81060CA00171D0C4606328DB2FB
:105A140056B9012101FA00F0D9680143D960CCF8E4
:105A24001040DD539D52F8BDF1000431585AD8534B
:105A340003EBC0009E52C5805D52F4E7043A2DE9A1
:105A4400F041CC1D114424F0070421F007010E1B82
:105A5400F708B7FA87F24FF00008C2F12405AD0049
:105A64000735C2F12002ED0804604146A760C4F87E
:105A74000C80920004F1100001F003FB6B0043F072
:105A8400010363807B1B04EBC5025900A4F800806A
:105A94005180A21924F83550A2F80280A35304EBD4
:105AA400C7035A88294642F001025A802046BDE8BD
:105AB400F041FFF79CBF2DE9F04706460D46174617
:105AC40098462BB34FF0000A98F8004093F80190E1
:105AD400DB78A40004EB430498F802301C444444EB
